{
  "_format": "hh-sol-artifact-1",
  "contractName": "FlareFLR",
  "sourceName": "contracts/FlareFLR.sol",
  "abi": [
    {
      "inputs": [
        {
          "internalType": "address",
          "name": "sourceEmitter_",
          "type": "address"
        }
      ],
      "stateMutability": "nonpayable",
      "type": "constructor"
    },
    {
      "anonymous": false,
      "inputs": [
        {
          "indexed": true,
          "internalType": "bytes32",
          "name": "reportHash",
          "type": "bytes32"
        },
        {
          "indexed": true,
          "internalType": "bytes32",
          "name": "sourceTxHash",
          "type": "bytes32"
        },
        {
          "indexed": false,
          "internalType": "uint64",
          "name": "bucketMs",
          "type": "uint64"
        }
      ],
      "name": "ReportAnchored",
      "type": "event"
    },
    {
      "inputs": [
        {
          "components": [
            {
              "internalType": "bytes32[]",
              "name": "merkleProof",
              "type": "bytes32[]"
            },
            {
              "components": [
                {
                  "internalType": "bytes32",
                  "name": "attestationType",
                  "type": "bytes32"
                },
                {
                  "internalType": "bytes32",
                  "name": "sourceId",
                  "type": "bytes32"
                },
                {
                  "internalType": "uint64",
                  "name": "votingRound",
                  "type": "uint64"
                },
                {
                  "internalType": "uint64",
                  "name": "lowestUsedTimestamp",
                  "type": "uint64"
                },
                {
                  "components": [
                    {
                      "internalType": "bytes32",
                      "name": "transactionHash",
                      "type": "bytes32"
                    },
                    {
                      "internalType": "uint16",
                      "name": "requiredConfirmations",
                      "type": "uint16"
                    },
                    {
                      "internalType": "bool",
                      "name": "provideInput",
                      "type": "bool"
                    },
                    {
                      "internalType": "bool",
                      "name": "listEvents",
                      "type": "bool"
                    },
                    {
                      "internalType": "uint32[]",
                      "name": "logIndices",
                      "type": "uint32[]"
                    }
                  ],
                  "internalType": "struct IEVMTransaction.RequestBody",
                  "name": "requestBody",
                  "type": "tuple"
                },
                {
                  "components": [
                    {
                      "internalType": "uint64",
                      "name": "blockNumber",
                      "type": "uint64"
                    },
                    {
                      "internalType": "uint64",
                      "name": "timestamp",
                      "type": "uint64"
                    },
                    {
                      "internalType": "address",
                      "name": "sourceAddress",
                      "type": "address"
                    },
                    {
                      "internalType": "bool",
                      "name": "isDeployment",
                      "type": "bool"
                    },
                    {
                      "internalType": "address",
                      "name": "receivingAddress",
                      "type": "address"
                    },
                    {
                      "internalType": "uint256",
                      "name": "value",
                      "type": "uint256"
                    },
                    {
                      "internalType": "bytes",
                      "name": "input",
                      "type": "bytes"
                    },
                    {
                      "internalType": "uint8",
                      "name": "status",
                      "type": "uint8"
                    },
                    {
                      "components": [
                        {
                          "internalType": "uint32",
                          "name": "logIndex",
                          "type": "uint32"
                        },
                        {
                          "internalType": "address",
                          "name": "emitterAddress",
                          "type": "address"
                        },
                        {
                          "internalType": "bytes32[]",
                          "name": "topics",
                          "type": "bytes32[]"
                        },
                        {
                          "internalType": "bytes",
                          "name": "data",
                          "type": "bytes"
                        },
                        {
                          "internalType": "bool",
                          "name": "removed",
                          "type": "bool"
                        }
                      ],
                      "internalType": "struct IEVMTransaction.Event[]",
                      "name": "events",
                      "type": "tuple[]"
                    }
                  ],
                  "internalType": "struct IEVMTransaction.ResponseBody",
                  "name": "responseBody",
                  "type": "tuple"
                }
              ],
              "internalType": "struct IEVMTransaction.Response",
              "name": "data",
              "type": "tuple"
            }
          ],
          "internalType": "struct IEVMTransaction.Proof",
          "name": "proof",
          "type": "tuple"
        }
      ],
      "name": "anchorFromEvmProof",
      "outputs": [],
      "stateMutability": "nonpayable",
      "type": "function"
    },
    {
      "inputs": [
        {
          "internalType": "bytes32",
          "name": "reportHash",
          "type": "bytes32"
        }
      ],
      "name": "getReport",
      "outputs": [
        {
          "components": [
            {
              "internalType": "bytes32",
              "name": "reportHash",
              "type": "bytes32"
            },
            {
              "internalType": "bytes32",
              "name": "sourceTxHash",
              "type": "bytes32"
            },
            {
              "internalType": "uint64",
              "name": "bucketMs",
              "type": "uint64"
            },
            {
              "internalType": "uint64",
              "name": "anchoredAt",
              "type": "uint64"
            },
            {
              "internalType": "string",
              "name": "reportType",
              "type": "string"
            }
          ],
          "internalType": "struct FlareFLR.Report",
          "name": "",
          "type": "tuple"
        }
      ],
      "stateMutability": "view",
      "type": "function"
    },
    {
      "inputs": [],
      "name": "reportCount",
      "outputs": [
        {
          "internalType": "uint256",
          "name": "",
          "type": "uint256"
        }
      ],
      "stateMutability": "view",
      "type": "function"
    },
    {
      "inputs": [
        {
          "internalType": "uint256",
          "name": "index",
          "type": "uint256"
        }
      ],
      "name": "reportHashAt",
      "outputs": [
        {
          "internalType": "bytes32",
          "name": "",
          "type": "bytes32"
        }
      ],
      "stateMutability": "view",
      "type": "function"
    },
    {
      "inputs": [],
      "name": "sourceEmitter",
      "outputs": [
        {
          "internalType": "address",
          "name": "",
          "type": "address"
        }
      ],
      "stateMutability": "view",
      "type": "function"
    }
  ],
  "bytecode": "0x60a060405234801561001057600080fd5b506040516124273803806124278339818101604052810190610032919061013e565b600073ffffffffffffffffffffffffffffffffffffffff168173ffffffffffffffffffffffffffffffffffffffff16036100a1576040517f08c379a0000000000000000000000000000000000000000000000000000000008152600401610098906101c8565b60405180910390fd5b8073ffffffffffffffffffffffffffffffffffffffff1660808173ffffffffffffffffffffffffffffffffffffffff1681525050506101e8565b600080fd5b600073ffffffffffffffffffffffffffffffffffffffff82169050919050565b600061010b826100e0565b9050919050565b61011b81610100565b811461012657600080fd5b50565b60008151905061013881610112565b92915050565b600060208284031215610154576101536100db565b5b600061016284828501610129565b91505092915050565b600082825260208201905092915050565b7f656d70747920656d697474657200000000000000000000000000000000000000600082015250565b60006101b2600d8361016b565b91506101bd8261017c565b602082019050919050565b600060208201905081810360008301526101e1816101a5565b9050919050565b60805161221d61020a600039600081816102590152610488015261221d6000f3fe608060405234801561001057600080fd5b50600436106100575760003560e01c8063171c4f111461005c578063185c6f841461008c5780635dfb8f39146100aa578063bf928bac146100c8578063dc0a1255146100f8575b600080fd5b61007660048036038101906100719190610964565b610114565b6040516100839190610ac9565b60405180910390f35b61009461024a565b6040516100a19190610b04565b60405180910390f35b6100b2610257565b6040516100bf9190610b60565b60405180910390f35b6100e260048036038101906100dd9190610ba7565b61027b565b6040516100ef9190610be3565b60405180910390f35b610112600480360381019061010d9190610c22565b6102ea565b005b61011c6108d1565b6000808381526020019081526020016000206040518060a001604052908160008201548152602001600182015481526020016002820160009054906101000a900467ffffffffffffffff1667ffffffffffffffff1667ffffffffffffffff1681526020016002820160089054906101000a900467ffffffffffffffff1667ffffffffffffffff1667ffffffffffffffff1681526020016003820180546101c190610c9a565b80601f01602080910402602001604051908101604052809291908181526020018280546101ed90610c9a565b801561023a5780601f1061020f5761010080835404028352916020019161023a565b820191906000526020600020905b81548152906001019060200180831161021d57829003601f168201915b5050505050815250509050919050565b6000600180549050905090565b7f000000000000000000000000000000000000000000000000000000000000000081565b600060018054905082106102c4576040517f08c379a00000000000000000000000000000000000000000000000000000000081526004016102bb90610d28565b60405180910390fd5b600182815481106102d8576102d7610d48565b5b90600052602060002001549050919050565b60006102f4610818565b90508073ffffffffffffffffffffffffffffffffffffffff166358fbe9e1836040518263ffffffff1660e01b815260040161032f9190611790565b602060405180830381865afa15801561034c573d6000803e3d6000fd5b505050506040513d601f19601f8201168201806040525081019061037091906117c7565b6103af576040517f08c379a00000000000000000000000000000000000000000000000000000000081526004016103a690611840565b60405180910390fd5b368280602001906103c0919061186f565b8060a001906103cf9190611897565b905060018160e00160208101906103e691906118c0565b60ff1614610429576040517f08c379a000000000000000000000000000000000000000000000000000000000815260040161042090611939565b60405180910390fd5b60006060600080600090505b848061010001906104469190611959565b90508110156105a05736858061010001906104619190611959565b8381811061047257610471610d48565b5b905060200281019061048491906119bc565b90507f000000000000000000000000000000000000000000000000000000000000000073ffffffffffffffffffffffffffffffffffffffff168160200160208101906104d091906119e4565b73ffffffffffffffffffffffffffffffffffffffff16146104f15750610593565b60008180604001906105039190611a11565b9050148061055957507feaeae23492543dcf2aaed81bca96790b723c2af0caaf126fe062e69f93e1fe3281806040019061053d9190611a11565b600081811061054f5761054e610d48565b5b9050602002013514155b156105645750610593565b8080606001906105749190611a74565b8101906105819190611bfd565b809550819650505060019250506105a0565b8080600101915050610435565b50806105e1576040517f08c379a00000000000000000000000000000000000000000000000000000000081526004016105d890611ca5565b60405180910390fd5b6000801b8303610626576040517f08c379a000000000000000000000000000000000000000000000000000000000815260040161061d90611d11565b60405180910390fd5b6000801b6000808581526020019081526020016000206000015414610680576040517f08c379a000000000000000000000000000000000000000000000000000000000815260040161067790611d7d565b60405180910390fd5b6000868060200190610692919061186f565b80608001906106a19190611d9d565b6000013590506040518060a00160405280858152602001828152602001603c80426106cc9190611e23565b6106d69190611e54565b67ffffffffffffffff1681526020014267ffffffffffffffff16815260200184815250600080868152602001908152602001600020600082015181600001556020820151816001015560408201518160020160006101000a81548167ffffffffffffffff021916908367ffffffffffffffff16021790555060608201518160020160086101000a81548167ffffffffffffffff021916908367ffffffffffffffff1602179055506080820151816003019081610792919061203d565b50905050600184908060018154018082558091505060019003906000526020600020016000909190919091505580847f3ba02d9f037c160dfedee992ccd353fb16c4c2e5694b44e341383297f230bc50603c80426107f09190611e23565b6107fa9190611e54565b604051610807919061211e565b60405180910390a350505050505050565b600073ad67fe66660fb8dfe9d6b1b4240d8650e30f601973ffffffffffffffffffffffffffffffffffffffff1663159354a260405160200161085990612185565b604051602081830303815290604052805190602001206040518263ffffffff1660e01b815260040161088b9190610be3565b602060405180830381865afa1580156108a8573d6000803e3d6000fd5b505050506040513d601f19601f820116820180604052508101906108cc91906121ba565b905090565b6040518060a001604052806000801916815260200160008019168152602001600067ffffffffffffffff168152602001600067ffffffffffffffff168152602001606081525090565b6000604051905090565b600080fd5b600080fd5b6000819050919050565b6109418161092e565b811461094c57600080fd5b50565b60008135905061095e81610938565b92915050565b60006020828403121561097a57610979610924565b5b60006109888482850161094f565b91505092915050565b61099a8161092e565b82525050565b600067ffffffffffffffff82169050919050565b6109bd816109a0565b82525050565b600081519050919050565b600082825260208201905092915050565b60005b838110156109fd5780820151818401526020810190506109e2565b60008484015250505050565b6000601f19601f8301169050919050565b6000610a25826109c3565b610a2f81856109ce565b9350610a3f8185602086016109df565b610a4881610a09565b840191505092915050565b600060a083016000830151610a6b6000860182610991565b506020830151610a7e6020860182610991565b506040830151610a9160408601826109b4565b506060830151610aa460608601826109b4565b5060808301518482036080860152610abc8282610a1a565b9150508091505092915050565b60006020820190508181036000830152610ae38184610a53565b905092915050565b6000819050919050565b610afe81610aeb565b82525050565b6000602082019050610b196000830184610af5565b92915050565b600073ffffffffffffffffffffffffffffffffffffffff82169050919050565b6000610b4a82610b1f565b9050919050565b610b5a81610b3f565b82525050565b6000602082019050610b756000830184610b51565b92915050565b610b8481610aeb565b8114610b8f57600080fd5b50565b600081359050610ba181610b7b565b92915050565b600060208284031215610bbd57610bbc610924565b5b6000610bcb84828501610b92565b91505092915050565b610bdd8161092e565b82525050565b6000602082019050610bf86000830184610bd4565b92915050565b600080fd5b600060408284031215610c1957610c18610bfe565b5b81905092915050565b600060208284031215610c3857610c37610924565b5b600082013567ffffffffffffffff811115610c5657610c55610929565b5b610c6284828501610c03565b91505092915050565b7f4e487b7100000000000000000000000000000000000000000000000000000000600052602260045260246000fd5b60006002820490506001821680610cb257607f821691505b602082108103610cc557610cc4610c6b565b5b50919050565b600082825260208201905092915050565b7f6f7574206f662072616e67650000000000000000000000000000000000000000600082015250565b6000610d12600c83610ccb565b9150610d1d82610cdc565b602082019050919050565b60006020820190508181036000830152610d4181610d05565b9050919050565b7f4e487b7100000000000000000000000000000000000000000000000000000000600052603260045260246000fd5b600080fd5b600080fd5b600080fd5b60008083356001602003843603038112610da357610da2610d81565b5b83810192508235915060208301925067ffffffffffffffff821115610dcb57610dca610d77565b5b602082023603831315610de157610de0610d7c565b5b509250929050565b600082825260208201905092915050565b600080fd5b82818337505050565b6000610e148385610de9565b93507f07ffffffffffffffffffffffffffffffffffffffffffffffffffffffffffffff831115610e4757610e46610dfa565b5b602083029250610e58838584610dff565b82840190509392505050565b60008235600160c003833603038112610e8057610e7f610d81565b5b82810191505092915050565b6000610e9b602084018461094f565b905092915050565b610eac816109a0565b8114610eb757600080fd5b50565b600081359050610ec981610ea3565b92915050565b6000610ede6020840184610eba565b905092915050565b60008235600160a003833603038112610f0257610f01610d81565b5b82810191505092915050565b600061ffff82169050919050565b610f2581610f0e565b8114610f3057600080fd5b50565b600081359050610f4281610f1c565b92915050565b6000610f576020840184610f33565b905092915050565b610f6881610f0e565b82525050565b60008115159050919050565b610f8381610f6e565b8114610f8e57600080fd5b50565b600081359050610fa081610f7a565b92915050565b6000610fb56020840184610f91565b905092915050565b610fc681610f6e565b82525050565b60008083356001602003843603038112610fe957610fe8610d81565b5b83810192508235915060208301925067ffffffffffffffff82111561101157611010610d77565b5b60208202360383131561102757611026610d7c565b5b509250929050565b600082825260208201905092915050565b6000819050919050565b600063ffffffff82169050919050565b6110638161104a565b82525050565b6000611075838361105a565b60208301905092915050565b61108a8161104a565b811461109557600080fd5b50565b6000813590506110a781611081565b92915050565b60006110bc6020840184611098565b905092915050565b6000602082019050919050565b60006110dd838561102f565b93506110e882611040565b8060005b85811015611121576110fe82846110ad565b6111088882611069565b9750611113836110c4565b9250506001810190506110ec565b5085925050509392505050565b600060a083016111416000840184610e8c565b61114e6000860182610991565b5061115c6020840184610f48565b6111696020860182610f5f565b506111776040840184610fa6565b6111846040860182610fbd565b506111926060840184610fa6565b61119f6060860182610fbd565b506111ad6080840184610fcc565b85830360808701526111c08382846110d1565b925050508091505092915050565b600082356001610120038336030381126111eb576111ea610d81565b5b82810191505092915050565b61120081610b3f565b811461120b57600080fd5b50565b60008135905061121d816111f7565b92915050565b6000611232602084018461120e565b905092915050565b61124381610b3f565b82525050565b60006112586020840184610b92565b905092915050565b61126981610aeb565b82525050565b6000808335600160200384360303811261128c5761128b610d81565b5b83810192508235915060208301925067ffffffffffffffff8211156112b4576112b3610d77565b5b6001820236038313156112ca576112c9610d7c565b5b509250929050565b600082825260208201905092915050565b82818337600083830152505050565b60006112fe83856112d2565b935061130b8385846112e3565b61131483610a09565b840190509392505050565b600060ff82169050919050565b6113358161131f565b811461134057600080fd5b50565b6000813590506113528161132c565b92915050565b60006113676020840184611343565b905092915050565b6113788161131f565b82525050565b6000808335600160200384360303811261139b5761139a610d81565b5b83810192508235915060208301925067ffffffffffffffff8211156113c3576113c2610d77565b5b6020820236038313156113d9576113d8610d7c565b5b509250929050565b600082825260208201905092915050565b6000819050919050565b600060a0830161140f60008401846110ad565b61141c600086018261105a565b5061142a6020840184611223565b611437602086018261123a565b506114456040840184610d86565b8583036040870152611458838284610e08565b92505050611469606084018461126f565b858303606087015261147c8382846112f2565b9250505061148d6080840184610fa6565b61149a6080860182610fbd565b508091505092915050565b60006114b183836113fc565b905092915050565b60008235600160a0038336030381126114d5576114d4610d81565b5b82810191505092915050565b6000602082019050919050565b60006114fa83856113e1565b93508360208402850161150c846113f2565b8060005b8781101561155057848403895261152782846114b9565b61153185826114a5565b945061153c836114e1565b925060208a01995050600181019050611510565b50829750879450505050509392505050565b600061012083016115766000840184610ecf565b61158360008601826109b4565b506115916020840184610ecf565b61159e60208601826109b4565b506115ac6040840184611223565b6115b9604086018261123a565b506115c76060840184610fa6565b6115d46060860182610fbd565b506115e26080840184611223565b6115ef608086018261123a565b506115fd60a0840184611249565b61160a60a0860182611260565b5061161860c084018461126f565b85830360c087015261162b8382846112f2565b9250505061163c60e0840184611358565b61164960e086018261136f565b5061165861010084018461137e565b85830361010087015261166c8382846114ee565b925050508091505092915050565b600060c0830161168d6000840184610e8c565b61169a6000860182610991565b506116a86020840184610e8c565b6116b56020860182610991565b506116c36040840184610ecf565b6116d060408601826109b4565b506116de6060840184610ecf565b6116eb60608601826109b4565b506116f96080840184610ee6565b848203608086015261170b828261112e565b91505061171b60a08401846111ce565b84820360a086015261172d8282611562565b9150508091505092915050565b60006040830161174d6000840184610d86565b8583036000870152611760838284610e08565b925050506117716020840184610e64565b8482036020860152611783828261167a565b9150508091505092915050565b600060208201905081810360008301526117aa818461173a565b905092915050565b6000815190506117c181610f7a565b92915050565b6000602082840312156117dd576117dc610924565b5b60006117eb848285016117b2565b91505092915050565b7f696e76616c69642070726f6f6600000000000000000000000000000000000000600082015250565b600061182a600d83610ccb565b9150611835826117f4565b602082019050919050565b600060208201905081810360008301526118598161181d565b9050919050565b600080fd5b600080fd5b600080fd5b60008235600160c00383360303811261188b5761188a611860565b5b80830191505092915050565b600082356001610120038336030381126118b4576118b3611860565b5b80830191505092915050565b6000602082840312156118d6576118d5610924565b5b60006118e484828501611343565b91505092915050565b7f7478206661696c65640000000000000000000000000000000000000000000000600082015250565b6000611923600983610ccb565b915061192e826118ed565b602082019050919050565b6000602082019050818103600083015261195281611916565b9050919050565b6000808335600160200384360303811261197657611975611860565b5b80840192508235915067ffffffffffffffff82111561199857611997611865565b5b6020830192506020820236038313156119b4576119b361186a565b5b509250929050565b60008235600160a0038336030381126119d8576119d7611860565b5b80830191505092915050565b6000602082840312156119fa576119f9610924565b5b6000611a088482850161120e565b91505092915050565b60008083356001602003843603038112611a2e57611a2d611860565b5b80840192508235915067ffffffffffffffff821115611a5057611a4f611865565b5b602083019250602082023603831315611a6c57611a6b61186a565b5b509250929050565b60008083356001602003843603038112611a9157611a90611860565b5b80840192508235915067ffffffffffffffff821115611ab357611ab2611865565b5b602083019250600182023603831315611acf57611ace61186a565b5b509250929050565b600080fd5b600080fd5b7f4e487b7100000000000000000000000000000000000000000000000000000000600052604160045260246000fd5b611b1982610a09565b810181811067ffffffffffffffff82111715611b3857611b37611ae1565b5b80604052505050565b6000611b4b61091a565b9050611b578282611b10565b919050565b600067ffffffffffffffff821115611b7757611b76611ae1565b5b611b8082610a09565b9050602081019050919050565b6000611ba0611b9b84611b5c565b611b41565b905082815260208101848484011115611bbc57611bbb611adc565b5b611bc78482856112e3565b509392505050565b600082601f830112611be457611be3611ad7565b5b8135611bf4848260208601611b8d565b91505092915050565b60008060408385031215611c1457611c13610924565b5b6000611c228582860161094f565b925050602083013567ffffffffffffffff811115611c4357611c42610929565b5b611c4f85828601611bcf565b9150509250929050565b7f7265706f7274206576656e74206e6f7420666f756e6400000000000000000000600082015250565b6000611c8f601683610ccb565b9150611c9a82611c59565b602082019050919050565b60006020820190508181036000830152611cbe81611c82565b9050919050565b7f656d707479206861736800000000000000000000000000000000000000000000600082015250565b6000611cfb600a83610ccb565b9150611d0682611cc5565b602082019050919050565b60006020820190508181036000830152611d2a81611cee565b9050919050565b7f616c726561647920616e63686f72656400000000000000000000000000000000600082015250565b6000611d67601083610ccb565b9150611d7282611d31565b602082019050919050565b60006020820190508181036000830152611d9681611d5a565b9050919050565b60008235600160a003833603038112611db957611db8611860565b5b80830191505092915050565b7f4e487b7100000000000000000000000000000000000000000000000000000000600052601260045260246000fd5b7f4e487b7100000000000000000000000000000000000000000000000000000000600052601160045260246000fd5b6000611e2e82610aeb565b9150611e3983610aeb565b925082611e4957611e48611dc5565b5b828204905092915050565b6000611e5f826109a0565b9150611e6a836109a0565b9250828202611e78816109a0565b9150808214611e8a57611e89611df4565b5b5092915050565b60008190508160005260206000209050919050565b60006020601f8301049050919050565b600082821b905092915050565b600060088302611ef37fffffffffffffffffffffffffffffffffffffffffffffffffffffffffffffffff82611eb6565b611efd8683611eb6565b95508019841693508086168417925050509392505050565b6000819050919050565b6000611f3a611f35611f3084610aeb565b611f15565b610aeb565b9050919050565b6000819050919050565b611f5483611f1f565b611f68611f6082611f41565b848454611ec3565b825550505050565b600090565b611f7d611f70565b611f88818484611f4b565b505050565b5b81811015611fac57611fa1600082611f75565b600181019050611f8e565b5050565b601f821115611ff157611fc281611e91565b611fcb84611ea6565b81016020851015611fda578190505b611fee611fe685611ea6565b830182611f8d565b50505b505050565b600082821c905092915050565b600061201460001984600802611ff6565b1980831691505092915050565b600061202d8383612003565b9150826002028217905092915050565b612046826109c3565b67ffffffffffffffff81111561205f5761205e611ae1565b5b6120698254610c9a565b612074828285611fb0565b600060209050601f8311600181146120a75760008415612095578287015190505b61209f8582612021565b865550612107565b601f1984166120b586611e91565b60005b828110156120dd578489015182556001820191506020850194506020810190506120b8565b868310156120fa57848901516120f6601f891682612003565b8355505b6001600288020188555050505b505050505050565b612118816109a0565b82525050565b6000602082019050612133600083018461210f565b92915050565b7f466463566572696669636174696f6e0000000000000000000000000000000000600082015250565b600061216f600f83610ccb565b915061217a82612139565b602082019050919050565b6000602082019050818103600083015261219e81612162565b9050919050565b6000815190506121b4816111f7565b92915050565b6000602082840312156121d0576121cf610924565b5b60006121de848285016121a5565b9150509291505056fea2646970667358221220137852908178f8340574dba442a2e10f44ab8fbf907a00079899745a447ef33564736f6c63430008190033",
  "linkReferences": {},
  "deployedLinkReferences": {}
}