{
  "_format": "hh-sol-artifact-1",
  "contractName": "ReportEmitter",
  "sourceName": "contracts/ReportEmitter.sol",
  "abi": [
    {
      "anonymous": false,
      "inputs": [
        {
          "indexed": false,
          "internalType": "bytes32",
          "name": "reportHash",
          "type": "bytes32"
        },
        {
          "indexed": false,
          "internalType": "string",
          "name": "reportType",
          "type": "string"
        }
      ],
      "name": "ReportSubmitted",
      "type": "event"
    },
    {
      "inputs": [
        {
          "internalType": "bytes32",
          "name": "reportHash",
          "type": "bytes32"
        },
        {
          "internalType": "string",
          "name": "reportType",
          "type": "string"
        }
      ],
      "name": "submitReport",
      "outputs": [],
      "stateMutability": "nonpayable",
      "type": "function"
    }
  ],
  "bytecode": "0x6080604052348015600f57600080fd5b506103178061001f6000396000f3fe608060405234801561001057600080fd5b506004361061002b5760003560e01c8063b97680d714610030575b600080fd5b61004a60048036038101906100459190610176565b61004c565b005b6000801b8303610091576040517f08c379a000000000000000000000000000000000000000000000000000000000815260040161008890610233565b60405180910390fd5b7feaeae23492543dcf2aaed81bca96790b723c2af0caaf126fe062e69f93e1fe328383836040516100c4939291906102af565b60405180910390a1505050565b600080fd5b600080fd5b6000819050919050565b6100ee816100db565b81146100f957600080fd5b50565b60008135905061010b816100e5565b92915050565b600080fd5b600080fd5b600080fd5b60008083601f84011261013657610135610111565b5b8235905067ffffffffffffffff81111561015357610152610116565b5b60208301915083600182028301111561016f5761016e61011b565b5b9250929050565b60008060006040848603121561018f5761018e6100d1565b5b600061019d868287016100fc565b935050602084013567ffffffffffffffff8111156101be576101bd6100d6565b5b6101ca86828701610120565b92509250509250925092565b600082825260208201905092915050565b7f656d707479206861736800000000000000000000000000000000000000000000600082015250565b600061021d600a836101d6565b9150610228826101e7565b602082019050919050565b6000602082019050818103600083015261024c81610210565b9050919050565b61025c816100db565b82525050565b82818337600083830152505050565b6000601f19601f8301169050919050565b600061028e83856101d6565b935061029b838584610262565b6102a483610271565b840190509392505050565b60006040820190506102c46000830186610253565b81810360208301526102d7818486610282565b905094935050505056fea2646970667358221220c03def5809b0d42b4befdef1a32d4faa3553571b0fc67bc1382606442fa64d1e64736f6c63430008190033",
  "linkReferences": {},
  "deployedLinkReferences": {}
}